{
  "_format": "hh-sol-artifact-1",
  "contractName": "nft_market",
  "sourceName": "contracts/nft.sol",
  "abi": [
    {
      "inputs": [],
      "stateMutability": "nonpayable",
      "type": "constructor"
    },
    {
      "anonymous": false,
      "inputs": [
        {
          "indexed": true,
          "internalType": "address",
          "name": "owner",
          "type": "address"
        },
        {
          "indexed": true,
          "internalType": "address",
          "name": "approved",
          "type": "address"
        },
        {
          "indexed": true,
          "internalType": "uint256",
          "name": "tokenId",
          "type": "uint256"
        }
      ],
      "name": "Approval",
      "type": "event"
    },
    {
      "anonymous": false,
      "inputs": [
        {
          "indexed": true,
          "internalType": "address",
          "name": "owner",
          "type": "address"
        },
        {
          "indexed": true,
          "internalType": "address",
          "name": "operator",
          "type": "address"
        },
        {
          "indexed": false,
          "internalType": "bool",
          "name": "approved",
          "type": "bool"
        }
      ],
      "name": "ApprovalForAll",
      "type": "event"
    },
    {
      "anonymous": false,
      "inputs": [
        {
          "indexed": false,
          "internalType": "address",
          "name": "sender",
          "type": "address"
        },
        {
          "indexed": false,
          "internalType": "uint256",
          "name": "tokenId",
          "type": "uint256"
        }
      ],
      "name": "NewEpicNFTMinted",
      "type": "event"
    },
    {
      "anonymous": false,
      "inputs": [
        {
          "indexed": true,
          "internalType": "address",
          "name": "from",
          "type": "address"
        },
        {
          "indexed": true,
          "internalType": "address",
          "name": "to",
          "type": "address"
        },
        {
          "indexed": true,
          "internalType": "uint256",
          "name": "tokenId",
          "type": "uint256"
        }
      ],
      "name": "Transfer",
      "type": "event"
    },
    {
      "inputs": [
        {
          "internalType": "address",
          "name": "to",
          "type": "address"
        },
        {
          "internalType": "uint256",
          "name": "tokenId",
          "type": "uint256"
        }
      ],
      "name": "approve",
      "outputs": [],
      "stateMutability": "nonpayable",
      "type": "function"
    },
    {
      "inputs": [
        {
          "internalType": "address",
          "name": "owner",
          "type": "address"
        }
      ],
      "name": "balanceOf",
      "outputs": [
        {
          "internalType": "uint256",
          "name": "",
          "type": "uint256"
        }
      ],
      "stateMutability": "view",
      "type": "function"
    },
    {
      "inputs": [
        {
          "internalType": "uint256",
          "name": "tokenId",
          "type": "uint256"
        }
      ],
      "name": "getApproved",
      "outputs": [
        {
          "internalType": "address",
          "name": "",
          "type": "address"
        }
      ],
      "stateMutability": "view",
      "type": "function"
    },
    {
      "inputs": [
        {
          "internalType": "address",
          "name": "owner",
          "type": "address"
        },
        {
          "internalType": "address",
          "name": "operator",
          "type": "address"
        }
      ],
      "name": "isApprovedForAll",
      "outputs": [
        {
          "internalType": "bool",
          "name": "",
          "type": "bool"
        }
      ],
      "stateMutability": "view",
      "type": "function"
    },
    {
      "inputs": [],
      "name": "makeAnEpicNFT",
      "outputs": [],
      "stateMutability": "nonpayable",
      "type": "function"
    },
    {
      "inputs": [],
      "name": "name",
      "outputs": [
        {
          "internalType": "string",
          "name": "",
          "type": "string"
        }
      ],
      "stateMutability": "view",
      "type": "function"
    },
    {
      "inputs": [
        {
          "internalType": "uint256",
          "name": "tokenId",
          "type": "uint256"
        }
      ],
      "name": "ownerOf",
      "outputs": [
        {
          "internalType": "address",
          "name": "",
          "type": "address"
        }
      ],
      "stateMutability": "view",
      "type": "function"
    },
    {
      "inputs": [
        {
          "internalType": "address",
          "name": "from",
          "type": "address"
        },
        {
          "internalType": "address",
          "name": "to",
          "type": "address"
        },
        {
          "internalType": "uint256",
          "name": "tokenId",
          "type": "uint256"
        }
      ],
      "name": "safeTransferFrom",
      "outputs": [],
      "stateMutability": "nonpayable",
      "type": "function"
    },
    {
      "inputs": [
        {
          "internalType": "address",
          "name": "from",
          "type": "address"
        },
        {
          "internalType": "address",
          "name": "to",
          "type": "address"
        },
        {
          "internalType": "uint256",
          "name": "tokenId",
          "type": "uint256"
        },
        {
          "internalType": "bytes",
          "name": "_data",
          "type": "bytes"
        }
      ],
      "name": "safeTransferFrom",
      "outputs": [],
      "stateMutability": "nonpayable",
      "type": "function"
    },
    {
      "inputs": [
        {
          "internalType": "address",
          "name": "operator",
          "type": "address"
        },
        {
          "internalType": "bool",
          "name": "approved",
          "type": "bool"
        }
      ],
      "name": "setApprovalForAll",
      "outputs": [],
      "stateMutability": "nonpayable",
      "type": "function"
    },
    {
      "inputs": [
        {
          "internalType": "bytes4",
          "name": "interfaceId",
          "type": "bytes4"
        }
      ],
      "name": "supportsInterface",
      "outputs": [
        {
          "internalType": "bool",
          "name": "",
          "type": "bool"
        }
      ],
      "stateMutability": "view",
      "type": "function"
    },
    {
      "inputs": [],
      "name": "symbol",
      "outputs": [
        {
          "internalType": "string",
          "name": "",
          "type": "string"
        }
      ],
      "stateMutability": "view",
      "type": "function"
    },
    {
      "inputs": [
        {
          "internalType": "uint256",
          "name": "tokenId",
          "type": "uint256"
        }
      ],
      "name": "tokenURI",
      "outputs": [
        {
          "internalType": "string",
          "name": "",
          "type": "string"
        }
      ],
      "stateMutability": "view",
      "type": "function"
    },
    {
      "inputs": [
        {
          "internalType": "address",
          "name": "from",
          "type": "address"
        },
        {
          "internalType": "address",
          "name": "to",
          "type": "address"
        },
        {
          "internalType": "uint256",
          "name": "tokenId",
          "type": "uint256"
        }
      ],
      "name": "transferFrom",
      "outputs": [],
      "stateMutability": "nonpayable",
      "type": "function"
    }
  ],
  "bytecode": "0x60806040523480156200001157600080fd5b506040518060400160405280600881526020017f4b697474794e46540000000000000000000000000000000000000000000000008152506040518060400160405280600481526020017f4d45305700000000000000000000000000000000000000000000000000000000815250816000908051906020019062000096929190620000fc565b508060019080519060200190620000af929190620000fc565b505050620000c96007620000e660201b62000d291760201c565b620000e06007620000e660201b62000d291760201c565b62000211565b6001816000016000828254019250508190555050565b8280546200010a90620001ac565b90600052602060002090601f0160209004810192826200012e57600085556200017a565b82601f106200014957805160ff19168380011785556200017a565b828001600101855582156200017a579182015b82811115620001795782518255916020019190600101906200015c565b5b5090506200018991906200018d565b5090565b5b80821115620001a85760008160009055506001016200018e565b5090565b60006002820490506001821680620001c557607f821691505b60208210811415620001dc57620001db620001e2565b5b50919050565b7f4e487b7100000000000000000000000000000000000000000000000000000000600052602260045260246000fd5b61305e80620002216000396000f3fe608060405234801561001057600080fd5b50600436106100ea5760003560e01c806370a082311161008c578063b88d4fde11610066578063b88d4fde1461025b578063c87b56dd14610277578063de9d132f146102a7578063e985e9c5146102b1576100ea565b806370a08231146101f157806395d89b4114610221578063a22cb4651461023f576100ea565b8063095ea7b3116100c8578063095ea7b31461016d57806323b872dd1461018957806342842e0e146101a55780636352211e146101c1576100ea565b806301ffc9a7146100ef57806306fdde031461011f578063081812fc1461013d575b600080fd5b61010960048036038101906101049190611e28565b6102e1565b604051610116919061238f565b60405180910390f35b6101276103c3565b60405161013491906123aa565b60405180910390f35b61015760048036038101906101529190611e7a565b610455565b60405161016491906122ff565b60405180910390f35b61018760048036038101906101829190611dec565b6104da565b005b6101a3600480360381019061019e9190611ce6565b6105f2565b005b6101bf60048036038101906101ba9190611ce6565b610652565b005b6101db60048036038101906101d69190611e7a565b610672565b6040516101e891906122ff565b60405180910390f35b61020b60048036038101906102069190611c81565b610724565b60405161021891906125cc565b60405180910390f35b6102296107dc565b60405161023691906123aa565b60405180910390f35b61025960048036038101906102549190611db0565b61086e565b005b61027560048036038101906102709190611d35565b6109ef565b005b610291600480360381019061028c9190611e7a565b610a51565b60405161029e91906123aa565b60405180910390f35b6102af610ba3565b005b6102cb60048036038101906102c69190611caa565b610c95565b6040516102d8919061238f565b60405180910390f35b60007f80ac58cd000000000000000000000000000000000000000000000000000000007bffffffffffffffffffffffffffffffffffffffffffffffffffffffff1916827bffffffffffffffffffffffffffffffffffffffffffffffffffffffff191614806103ac57507f5b5e139f000000000000000000000000000000000000000000000000000000007bffffffffffffffffffffffffffffffffffffffffffffffffffffffff1916827bffffffffffffffffffffffffffffffffffffffffffffffffffffffff1916145b806103bc57506103bb82610d3f565b5b9050919050565b6060600080546103d29061284b565b80601f01602080910402602001604051908101604052809291908181526020018280546103fe9061284b565b801561044b5780601f106104205761010080835404028352916020019161044b565b820191906000526020600020905b81548152906001019060200180831161042e57829003601f168201915b5050505050905090565b600061046082610da9565b61049f576040517f08c379a00000000000000000000000000000000000000000000000000000000081526004016104969061252c565b60405180910390fd5b6004600083815260200190815260200160002060009054906101000a900473ffffffffffffffffffffffffffffffffffffffff169050919050565b60006104e582610672565b90508073ffffffffffffffffffffffffffffffffffffffff168373ffffffffffffffffffffffffffffffffffffffff161415610556576040517f08c379a000000000000000000000000000000000000000000000000000000000815260040161054d9061258c565b60405180910390fd5b8073ffffffffffffffffffffffffffffffffffffffff16610575610e15565b73ffffffffffffffffffffffffffffffffffffffff1614806105a457506105a38161059e610e15565b610c95565b5b6105e3576040517f08c379a00000000000000000000000000000000000000000000000000000000081526004016105da9061246c565b60405180910390fd5b6105ed8383610e1d565b505050565b6106036105fd610e15565b82610ed6565b610642576040517f08c379a0000000000000000000000000000000000000000000000000000000008152600401610639906125ac565b60405180910390fd5b61064d838383610fb4565b505050565b61066d838383604051806020016040528060008152506109ef565b505050565b6000806002600084815260200190815260200160002060009054906101000a900473ffffffffffffffffffffffffffffffffffffffff169050600073ffffffffffffffffffffffffffffffffffffffff168173ffffffffffffffffffffffffffffffffffffffff16141561071b576040517f08c379a0000000000000000000000000000000000000000000000000000000008152600401610712906124ac565b60405180910390fd5b80915050919050565b60008073ffffffffffffffffffffffffffffffffffffffff168273ffffffffffffffffffffffffffffffffffffffff161415610795576040517f08c379a000000000000000000000000000000000000000000000000000000000815260040161078c9061248c565b60405180910390fd5b600360008373ffffffffffffffffffffffffffffffffffffffff1673ffffffffffffffffffffffffffffffffffffffff168152602001908152602001600020549050919050565b6060600180546107eb9061284b565b80601f01602080910402602001604051908101604052809291908181526020018280546108179061284b565b80156108645780601f1061083957610100808354040283529160200191610864565b820191906000526020600020905b81548152906001019060200180831161084757829003601f168201915b5050505050905090565b610876610e15565b73ffffffffffffffffffffffffffffffffffffffff168273ffffffffffffffffffffffffffffffffffffffff1614156108e4576040517f08c379a00000000000000000000000000000000000000000000000000000000081526004016108db9061242c565b60405180910390fd5b80600560006108f1610e15565b73ffffffffffffffffffffffffffffffffffffffff1673ffffffffffffffffffffffffffffffffffffffff16815260200190815260200160002060008473ffffffffffffffffffffffffffffffffffffffff1673ffffffffffffffffffffffffffffffffffffffff16815260200190815260200160002060006101000a81548160ff0219169083151502179055508173ffffffffffffffffffffffffffffffffffffffff1661099e610e15565b73ffffffffffffffffffffffffffffffffffffffff167f17307eab39ab6107e8899845ad3d59bd9653f200f220920489ca2b5937696c31836040516109e3919061238f565b60405180910390a35050565b610a006109fa610e15565b83610ed6565b610a3f576040517f08c379a0000000000000000000000000000000000000000000000000000000008152600401610a36906125ac565b60405180910390fd5b610a4b84848484611210565b50505050565b6060610a5c82610da9565b610a9b576040517f08c379a0000000000000000000000000000000000000000000000000000000008152600401610a929061250c565b60405180910390fd5b6000600660008481526020019081526020016000208054610abb9061284b565b80601f0160208091040260200160405190810160405280929190818152602001828054610ae79061284b565b8015610b345780601f10610b0957610100808354040283529160200191610b34565b820191906000526020600020905b815481529060010190602001808311610b1757829003601f168201915b505050505090506000610b4561126c565b9050600081511415610b5b578192505050610b9e565b600082511115610b90578082604051602001610b78929190612269565b60405160208183030381529060405292505050610b9e565b610b9984611283565b925050505b919050565b6000610bb7610bb2600761132a565b611338565b604051602001610bc79190612252565b60405160208183030381529060405290506000610be4600761132a565b90506000610c128384604051602001610bfe92919061228d565b6040516020818303038152906040526114e5565b9050600081604051602001610c2791906122dd565b6040516020818303038152906040529050610c4233846116a3565b610c4c83826116c1565b610c566007610d29565b7febb98688741ffa4c7589bf325de30cf7becb63de567842e1ccdb6cb949fdc82c3384604051610c87929190612366565b60405180910390a150505050565b6000600560008473ffffffffffffffffffffffffffffffffffffffff1673ffffffffffffffffffffffffffffffffffffffff16815260200190815260200160002060008373ffffffffffffffffffffffffffffffffffffffff1673ffffffffffffffffffffffffffffffffffffffff16815260200190815260200160002060009054906101000a900460ff16905092915050565b6001816000016000828254019250508190555050565b60007f01ffc9a7000000000000000000000000000000000000000000000000000000007bffffffffffffffffffffffffffffffffffffffffffffffffffffffff1916827bffffffffffffffffffffffffffffffffffffffffffffffffffffffff1916149050919050565b60008073ffffffffffffffffffffffffffffffffffffffff166002600084815260200190815260200160002060009054906101000a900473ffffffffffffffffffffffffffffffffffffffff1673ffffffffffffffffffffffffffffffffffffffff1614159050919050565b600033905090565b816004600083815260200190815260200160002060006101000a81548173ffffffffffffffffffffffffffffffffffffffff021916908373ffffffffffffffffffffffffffffffffffffffff160217905550808273ffffffffffffffffffffffffffffffffffffffff16610e9083610672565b73ffffffffffffffffffffffffffffffffffffffff167f8c5be1e5ebec7d5bd14f71427d1e84f3dd0314c0f7b2291e5b200ac8c7c3b92560405160405180910390a45050565b6000610ee182610da9565b610f20576040517f08c379a0000000000000000000000000000000000000000000000000000000008152600401610f179061244c565b60405180910390fd5b6000610f2b83610672565b90508073ffffffffffffffffffffffffffffffffffffffff168473ffffffffffffffffffffffffffffffffffffffff161480610f9a57508373ffffffffffffffffffffffffffffffffffffffff16610f8284610455565b73ffffffffffffffffffffffffffffffffffffffff16145b80610fab5750610faa8185610c95565b5b91505092915050565b8273ffffffffffffffffffffffffffffffffffffffff16610fd482610672565b73ffffffffffffffffffffffffffffffffffffffff161461102a576040517f08c379a00000000000000000000000000000000000000000000000000000000081526004016110219061254c565b60405180910390fd5b600073ffffffffffffffffffffffffffffffffffffffff168273ffffffffffffffffffffffffffffffffffffffff16141561109a576040517f08c379a00000000000000000000000000000000000000000000000000000000081526004016110919061240c565b60405180910390fd5b6110a5838383611735565b6110b0600082610e1d565b6001600360008573ffffffffffffffffffffffffffffffffffffffff1673ffffffffffffffffffffffffffffffffffffffff16815260200190815260200160002060008282546111009190612761565b925050819055506001600360008473ffffffffffffffffffffffffffffffffffffffff1673ffffffffffffffffffffffffffffffffffffffff16815260200190815260200160002060008282546111579190612680565b92505081905550816002600083815260200190815260200160002060006101000a81548173ffffffffffffffffffffffffffffffffffffffff021916908373ffffffffffffffffffffffffffffffffffffffff160217905550808273ffffffffffffffffffffffffffffffffffffffff168473ffffffffffffffffffffffffffffffffffffffff167fddf252ad1be2c89b69c2b068fc378daa952ba7f163c4a11628f55a4df523b3ef60405160405180910390a4505050565b61121b848484610fb4565b6112278484848461173a565b611266576040517f08c379a000000000000000000000000000000000000000000000000000000000815260040161125d906123cc565b60405180910390fd5b50505050565b606060405180602001604052806000815250905090565b606061128e82610da9565b6112cd576040517f08c379a00000000000000000000000000000000000000000000000000000000081526004016112c49061256c565b60405180910390fd5b60006112d761126c565b905060008151116112f75760405180602001604052806000815250611322565b8061130184611338565b604051602001611312929190612269565b6040516020818303038152906040525b915050919050565b600081600001549050919050565b60606000821415611380576040518060400160405280600181526020017f300000000000000000000000000000000000000000000000000000000000000081525090506114e0565b600082905060005b600082146113b257808061139b906128ae565b915050600a826113ab91906126d6565b9150611388565b60008167ffffffffffffffff8111156113f4577f4e487b7100000000000000000000000000000000000000000000000000000000600052604160045260246000fd5b6040519080825280601f01601f1916602001820160405280156114265781602001600182028036833780820191505090505b5090505b600085146114d95760018261143f9190612761565b9150600a8561144e91906128f7565b603061145a9190612680565b60f81b818381518110611496577f4e487b7100000000000000000000000000000000000000000000000000000000600052603260045260246000fd5b60200101907effffffffffffffffffffffffffffffffffffffffffffffffffffffffffffff1916908160001a905350600a856114d291906126d6565b945061142a565b8093505050505b919050565b6060600082519050600081141561150e576040518060200160405280600081525091505061169e565b6000600360028361151f9190612680565b61152991906126d6565b60046115359190612707565b905060006020826115469190612680565b67ffffffffffffffff811115611585577f4e487b7100000000000000000000000000000000000000000000000000000000600052604160045260246000fd5b6040519080825280601f01601f1916602001820160405280156115b75781602001600182028036833780820191505090505b5090506000604051806060016040528060408152602001612fe9604091399050600181016020830160005b8681101561165b5760038101905062ffffff818a015116603f8160121c168401518060081b905060ff603f83600c1c1686015116810190508060081b905060ff603f8360061c1686015116810190508060081b905060ff603f831686015116810190508060e01b905080845260048401935050506115e2565b506003860660018114611675576002811461168557611690565b613d3d60f01b6002830352611690565b603d60f81b60018303525b508484525050819450505050505b919050565b6116bd8282604051806020016040528060008152506118d1565b5050565b6116ca82610da9565b611709576040517f08c379a0000000000000000000000000000000000000000000000000000000008152600401611700906124cc565b60405180910390fd5b80600660008481526020019081526020016000209080519060200190611730929190611b0d565b505050565b505050565b600061175b8473ffffffffffffffffffffffffffffffffffffffff1661192c565b156118c4578373ffffffffffffffffffffffffffffffffffffffff1663150b7a02611784610e15565b8786866040518563ffffffff1660e01b81526004016117a6949392919061231a565b602060405180830381600087803b1580156117c057600080fd5b505af19250505080156117f157506040513d601f19601f820116820180604052508101906117ee9190611e51565b60015b611874573d8060008114611821576040519150601f19603f3d011682016040523d82523d6000602084013e611826565b606091505b5060008151141561186c576040517f08c379a0000000000000000000000000000000000000000000000000000000008152600401611863906123cc565b60405180910390fd5b805181602001fd5b63150b7a0260e01b7bffffffffffffffffffffffffffffffffffffffffffffffffffffffff1916817bffffffffffffffffffffffffffffffffffffffffffffffffffffffff1916149150506118c9565b600190505b949350505050565b6118db838361193f565b6118e8600084848461173a565b611927576040517f08c379a000000000000000000000000000000000000000000000000000000000815260040161191e906123cc565b60405180910390fd5b505050565b600080823b905060008111915050919050565b600073ffffffffffffffffffffffffffffffffffffffff168273ffffffffffffffffffffffffffffffffffffffff1614156119af576040517f08c379a00000000000000000000000000000000000000000000000000000000081526004016119a6906124ec565b60405180910390fd5b6119b881610da9565b156119f8576040517f08c379a00000000000000000000000000000000000000000000000000000000081526004016119ef906123ec565b60405180910390fd5b611a0460008383611735565b6001600360008473ffffffffffffffffffffffffffffffffffffffff1673ffffffffffffffffffffffffffffffffffffffff1681526020019081526020016000206000828254611a549190612680565b92505081905550816002600083815260200190815260200160002060006101000a81548173ffffffffffffffffffffffffffffffffffffffff021916908373ffffffffffffffffffffffffffffffffffffffff160217905550808273ffffffffffffffffffffffffffffffffffffffff16600073ffffffffffffffffffffffffffffffffffffffff167fddf252ad1be2c89b69c2b068fc378daa952ba7f163c4a11628f55a4df523b3ef60405160405180910390a45050565b828054611b199061284b565b90600052602060002090601f016020900481019282611b3b5760008555611b82565b82601f10611b5457805160ff1916838001178555611b82565b82800160010185558215611b82579182015b82811115611b81578251825591602001919060010190611b66565b5b509050611b8f9190611b93565b5090565b5b80821115611bac576000816000905550600101611b94565b5090565b6000611bc3611bbe8461260c565b6125e7565b905082815260208101848484011115611bdb57600080fd5b611be6848285612809565b509392505050565b600081359050611bfd81612f8c565b92915050565b600081359050611c1281612fa3565b92915050565b600081359050611c2781612fba565b92915050565b600081519050611c3c81612fba565b92915050565b600082601f830112611c5357600080fd5b8135611c63848260208601611bb0565b91505092915050565b600081359050611c7b81612fd1565b92915050565b600060208284031215611c9357600080fd5b6000611ca184828501611bee565b91505092915050565b60008060408385031215611cbd57600080fd5b6000611ccb85828601611bee565b9250506020611cdc85828601611bee565b9150509250929050565b600080600060608486031215611cfb57600080fd5b6000611d0986828701611bee565b9350506020611d1a86828701611bee565b9250506040611d2b86828701611c6c565b9150509250925092565b60008060008060808587031215611d4b57600080fd5b6000611d5987828801611bee565b9450506020611d6a87828801611bee565b9350506040611d7b87828801611c6c565b925050606085013567ffffffffffffffff811115611d9857600080fd5b611da487828801611c42565b91505092959194509250565b60008060408385031215611dc357600080fd5b6000611dd185828601611bee565b9250506020611de285828601611c03565b9150509250929050565b60008060408385031215611dff57600080fd5b6000611e0d85828601611bee565b9250506020611e1e85828601611c6c565b9150509250929050565b600060208284031215611e3a57600080fd5b6000611e4884828501611c18565b91505092915050565b600060208284031215611e6357600080fd5b6000611e7184828501611c2d565b91505092915050565b600060208284031215611e8c57600080fd5b6000611e9a84828501611c6c565b91505092915050565b611eac81612795565b82525050565b611ebb816127a7565b82525050565b6000611ecc8261263d565b611ed68185612653565b9350611ee6818560208601612818565b611eef816129e4565b840191505092915050565b6000611f0582612648565b611f0f8185612664565b9350611f1f818560208601612818565b611f28816129e4565b840191505092915050565b6000611f3e82612648565b611f488185612675565b9350611f58818560208601612818565b80840191505092915050565b6000611f71601383612675565b9150611f7c826129f5565b601382019050919050565b6000611f94603283612664565b9150611f9f82612a1e565b604082019050919050565b6000611fb7601c83612664565b9150611fc282612a6d565b602082019050919050565b6000611fda602483612664565b9150611fe582612a96565b604082019050919050565b6000611ffd601983612664565b915061200882612ae5565b602082019050919050565b6000612020602c83612664565b915061202b82612b0e565b604082019050919050565b6000612043603883612664565b915061204e82612b5d565b604082019050919050565b6000612066605e83612675565b915061207182612bac565b605e82019050919050565b6000612089602a83612664565b915061209482612c21565b604082019050919050565b60006120ac602983612664565b91506120b782612c70565b604082019050919050565b60006120cf602e83612664565b91506120da82612cbf565b604082019050919050565b60006120f2600283612675565b91506120fd82612d0e565b600282019050919050565b6000612115602083612664565b915061212082612d37565b602082019050919050565b6000612138603183612664565b915061214382612d60565b604082019050919050565b600061215b602c83612664565b915061216682612daf565b604082019050919050565b600061217e602983612664565b915061218982612dfe565b604082019050919050565b60006121a1602f83612664565b91506121ac82612e4d565b604082019050919050565b60006121c4602183612664565b91506121cf82612e9c565b604082019050919050565b60006121e7601d83612675565b91506121f282612eeb565b601d82019050919050565b600061220a603183612664565b915061221582612f14565b604082019050919050565b600061222d600d83612675565b915061223882612f63565b600d82019050919050565b61224c816127ff565b82525050565b600061225e8284611f33565b915081905092915050565b60006122758285611f33565b91506122818284611f33565b91508190509392505050565b600061229882611f64565b91506122a48285611f33565b91506122af82612059565b91506122bb8284611f33565b91506122c682612220565b91506122d1826120e5565b91508190509392505050565b60006122e8826121da565b91506122f48284611f33565b915081905092915050565b60006020820190506123146000830184611ea3565b92915050565b600060808201905061232f6000830187611ea3565b61233c6020830186611ea3565b6123496040830185612243565b818103606083015261235b8184611ec1565b905095945050505050565b600060408201905061237b6000830185611ea3565b6123886020830184612243565b9392505050565b60006020820190506123a46000830184611eb2565b92915050565b600060208201905081810360008301526123c48184611efa565b905092915050565b600060208201905081810360008301526123e581611f87565b9050919050565b6000602082019050818103600083015261240581611faa565b9050919050565b6000602082019050818103600083015261242581611fcd565b9050919050565b6000602082019050818103600083015261244581611ff0565b9050919050565b6000602082019050818103600083015261246581612013565b9050919050565b6000602082019050818103600083015261248581612036565b9050919050565b600060208201905081810360008301526124a58161207c565b9050919050565b600060208201905081810360008301526124c58161209f565b9050919050565b600060208201905081810360008301526124e5816120c2565b9050919050565b6000602082019050818103600083015261250581612108565b9050919050565b600060208201905081810360008301526125258161212b565b9050919050565b600060208201905081810360008301526125458161214e565b9050919050565b6000602082019050818103600083015261256581612171565b9050919050565b6000602082019050818103600083015261258581612194565b9050919050565b600060208201905081810360008301526125a5816121b7565b9050919050565b600060208201905081810360008301526125c5816121fd565b9050919050565b60006020820190506125e16000830184612243565b92915050565b60006125f1612602565b90506125fd828261287d565b919050565b6000604051905090565b600067ffffffffffffffff821115612627576126266129b5565b5b612630826129e4565b9050602081019050919050565b600081519050919050565b600081519050919050565b600082825260208201905092915050565b600082825260208201905092915050565b600081905092915050565b600061268b826127ff565b9150612696836127ff565b9250827fffffffffffffffffffffffffffffffffffffffffffffffffffffffffffffffff038211156126cb576126ca612928565b5b828201905092915050565b60006126e1826127ff565b91506126ec836127ff565b9250826126fc576126fb612957565b5b828204905092915050565b6000612712826127ff565b915061271d836127ff565b9250817fffffffffffffffffffffffffffffffffffffffffffffffffffffffffffffffff048311821515161561275657612755612928565b5b828202905092915050565b600061276c826127ff565b9150612777836127ff565b92508282101561278a57612789612928565b5b828203905092915050565b60006127a0826127df565b9050919050565b60008115159050919050565b60007fffffffff0000000000000000000000000000000000000000000000000000000082169050919050565b600073ffffffffffffffffffffffffffffffffffffffff82169050919050565b6000819050919050565b82818337600083830152505050565b60005b8381101561283657808201518184015260208101905061281b565b83811115612845576000848401525b50505050565b6000600282049050600182168061286357607f821691505b6020821081141561287757612876612986565b5b50919050565b612886826129e4565b810181811067ffffffffffffffff821117156128a5576128a46129b5565b5b80604052505050565b60006128b9826127ff565b91507fffffffffffffffffffffffffffffffffffffffffffffffffffffffffffffffff8214156128ec576128eb612928565b5b600182019050919050565b6000612902826127ff565b915061290d836127ff565b92508261291d5761291c612957565b5b828206905092915050565b7f4e487b7100000000000000000000000000000000000000000000000000000000600052601160045260246000fd5b7f4e487b7100000000000000000000000000000000000000000000000000000000600052601260045260246000fd5b7f4e487b7100000000000000000000000000000000000000000000000000000000600052602260045260246000fd5b7f4e487b7100000000000000000000000000000000000000000000000000000000600052604160045260246000fd5b6000601f19601f8301169050919050565b7f7b226e616d65223a20224b697474794e46542300000000000000000000000000600082015250565b7f4552433732313a207472616e7366657220746f206e6f6e20455243373231526560008201527f63656976657220696d706c656d656e7465720000000000000000000000000000602082015250565b7f4552433732313a20746f6b656e20616c7265616479206d696e74656400000000600082015250565b7f4552433732313a207472616e7366657220746f20746865207a65726f2061646460008201527f7265737300000000000000000000000000000000000000000000000000000000602082015250565b7f4552433732313a20617070726f766520746f2063616c6c657200000000000000600082015250565b7f4552433732313a206f70657261746f7220717565727920666f72206e6f6e657860008201527f697374656e7420746f6b656e0000000000000000000000000000000000000000602082015250565b7f4552433732313a20617070726f76652063616c6c6572206973206e6f74206f7760008201527f6e6572206e6f7220617070726f76656420666f7220616c6c0000000000000000602082015250565b7f222c20226465736372697074696f6e223a20224120686967686c79206163636c60008201527f61696d656420636f6c6c656374696f6e206f66206b6974746965732e222c202260208201527f696d616765223a202268747470733a2f2f726f626f686173682e6f72672f0000604082015250565b7f4552433732313a2062616c616e636520717565727920666f7220746865207a6560008201527f726f206164647265737300000000000000000000000000000000000000000000602082015250565b7f4552433732313a206f776e657220717565727920666f72206e6f6e657869737460008201527f656e7420746f6b656e0000000000000000000000000000000000000000000000602082015250565b7f45524337323155524953746f726167653a2055524920736574206f66206e6f6e60008201527f6578697374656e7420746f6b656e000000000000000000000000000000000000602082015250565b7f227d000000000000000000000000000000000000000000000000000000000000600082015250565b7f4552433732313a206d696e7420746f20746865207a65726f2061646472657373600082015250565b7f45524337323155524953746f726167653a2055524920717565727920666f722060008201527f6e6f6e6578697374656e7420746f6b656e000000000000000000000000000000602082015250565b7f4552433732313a20617070726f76656420717565727920666f72206e6f6e657860008201527f697374656e7420746f6b656e0000000000000000000000000000000000000000602082015250565b7f4552433732313a207472616e73666572206f6620746f6b656e2074686174206960008201527f73206e6f74206f776e0000000000000000000000000000000000000000000000602082015250565b7f4552433732314d657461646174613a2055524920717565727920666f72206e6f60008201527f6e6578697374656e7420746f6b656e0000000000000000000000000000000000602082015250565b7f4552433732313a20617070726f76616c20746f2063757272656e74206f776e6560008201527f7200000000000000000000000000000000000000000000000000000000000000602082015250565b7f646174613a6170706c69636174696f6e2f6a736f6e3b6261736536342c000000600082015250565b7f4552433732313a207472616e736665722063616c6c6572206973206e6f74206f60008201527f776e6572206e6f7220617070726f766564000000000000000000000000000000602082015250565b7f2e706e673f7365743d7365743400000000000000000000000000000000000000600082015250565b612f9581612795565b8114612fa057600080fd5b50565b612fac816127a7565b8114612fb757600080fd5b50565b612fc3816127b3565b8114612fce57600080fd5b50565b612fda816127ff565b8114612fe557600080fd5b5056fe4142434445464748494a4b4c4d4e4f505152535455565758595a6162636465666768696a6b6c6d6e6f707172737475767778797a303132333435363738392b2fa2646970667358221220ec9e09cdcd4bd0a7b9005069f813ce7f4a219ef7ba1b1d54d481ce9590f72b6964736f6c63430008040033",
  "linkReferences": {},
  "deployedLinkReferences": {}
}